{
  "contractName": "Coin",
  "abi": [
    {
      "inputs": [],
      "stateMutability": "nonpayable",
      "type": "constructor"
    },
    {
      "anonymous": false,
      "inputs": [
        {
          "indexed": false,
          "internalType": "address",
          "name": "from",
          "type": "address"
        },
        {
          "indexed": false,
          "internalType": "address",
          "name": "to",
          "type": "address"
        },
        {
          "indexed": false,
          "internalType": "uint256",
          "name": "amount",
          "type": "uint256"
        }
      ],
      "name": "Sent",
      "type": "event"
    },
    {
      "inputs": [
        {
          "internalType": "address",
          "name": "",
          "type": "address"
        }
      ],
      "name": "balances",
      "outputs": [
        {
          "internalType": "uint256",
          "name": "",
          "type": "uint256"
        }
      ],
      "stateMutability": "view",
      "type": "function",
      "constant": true
    },
    {
      "inputs": [],
      "name": "minter",
      "outputs": [
        {
          "internalType": "address",
          "name": "",
          "type": "address"
        }
      ],
      "stateMutability": "view",
      "type": "function",
      "constant": true
    },
    {
      "inputs": [
        {
          "internalType": "address",
          "name": "receiver",
          "type": "address"
        },
        {
          "internalType": "uint256",
          "name": "amount",
          "type": "uint256"
        }
      ],
      "name": "mint",
      "outputs": [],
      "stateMutability": "nonpayable",
      "type": "function"
    },
    {
      "inputs": [
        {
          "internalType": "address",
          "name": "receiver",
          "type": "address"
        },
        {
          "internalType": "uint256",
          "name": "amount",
          "type": "uint256"
        }
      ],
      "name": "transfer",
      "outputs": [],
      "stateMutability": "nonpayable",
      "type": "function"
    }
  ],
  "bytecode": "0x608060405234801561000f575f80fd5b50335f806101000a81548173ffffffffffffffffffffffffffffffffffffffff021916908373ffffffffffffffffffffffffffffffffffffffff16021790555061052f8061005c5f395ff3fe608060405234801561000f575f80fd5b506004361061004a575f3560e01c8063075461721461004e57806327e235e31461006c57806340c10f191461009c578063a9059cbb146100b8575b5f80fd5b6100566100d4565b6040516100639190610326565b60405180910390f35b6100866004803603810190610081919061036d565b6100f7565b60405161009391906103b0565b60405180910390f35b6100b660048036038101906100b191906103f3565b61010c565b005b6100d260048036038101906100cd91906103f3565b6101b9565b005b5f8054906101000a900473ffffffffffffffffffffffffffffffffffffffff1681565b6001602052805f5260405f205f915090505481565b5f8054906101000a900473ffffffffffffffffffffffffffffffffffffffff1673ffffffffffffffffffffffffffffffffffffffff163373ffffffffffffffffffffffffffffffffffffffff1614610162575f80fd5b8060015f8473ffffffffffffffffffffffffffffffffffffffff1673ffffffffffffffffffffffffffffffffffffffff1681526020019081526020015f205f8282546101ae919061045e565b925050819055505050565b8060015f3373ffffffffffffffffffffffffffffffffffffffff1673ffffffffffffffffffffffffffffffffffffffff1681526020019081526020015f20541015610202575f80fd5b8060015f3373ffffffffffffffffffffffffffffffffffffffff1673ffffffffffffffffffffffffffffffffffffffff1681526020019081526020015f205f82825461024e9190610491565b925050819055508060015f8473ffffffffffffffffffffffffffffffffffffffff1673ffffffffffffffffffffffffffffffffffffffff1681526020019081526020015f205f8282546102a1919061045e565b925050819055507f3990db2d31862302a685e8086b5755072a6e2b5b780af1ee81ece35ee3cd33453383836040516102db939291906104c4565b60405180910390a15050565b5f73ffffffffffffffffffffffffffffffffffffffff82169050919050565b5f610310826102e7565b9050919050565b61032081610306565b82525050565b5f6020820190506103395f830184610317565b92915050565b5f80fd5b61034c81610306565b8114610356575f80fd5b50565b5f8135905061036781610343565b92915050565b5f602082840312156103825761038161033f565b5b5f61038f84828501610359565b91505092915050565b5f819050919050565b6103aa81610398565b82525050565b5f6020820190506103c35f8301846103a1565b92915050565b6103d281610398565b81146103dc575f80fd5b50565b5f813590506103ed816103c9565b92915050565b5f80604083850312156104095761040861033f565b5b5f61041685828601610359565b9250506020610427858286016103df565b9150509250929050565b7f4e487b71000000000000000000000000000000000000000000000000000000005f52601160045260245ffd5b5f61046882610398565b915061047383610398565b925082820190508082111561048b5761048a610431565b5b92915050565b5f61049b82610398565b91506104a683610398565b92508282039050818111156104be576104bd610431565b5b92915050565b5f6060820190506104d75f830186610317565b6104e46020830185610317565b6104f160408301846103a1565b94935050505056fea26469706673582212205e8d436918d37e37b39cdc2bffc439e43de61ae14fe31251713e181f0338feec64736f6c63430008150033",
  "immutableReferences": {},
  "source": "pragma solidity ^0.8.0;\ncontract Coin {\n    // The keyword \"public\" makes those variables\n    // readable from outside.\n    address public minter;\n    mapping (address => uint) public balances;\n\n    // Events allow light clients to react on\n    // changes efficiently.\n    event Sent(address from, address to, uint amount);\n\n    // This is the constructor whose code is\n    // run only when the contract is created.\n    constructor () {\n        minter = msg.sender;\n    }\n\n    function mint(address receiver, uint amount) public {\n        if (msg.sender != minter)\n          revert();\n        balances[receiver] += amount;\n    }\n\n    function transfer(address receiver, uint amount) public {\n        if (balances[msg.sender] < amount)\n          revert();\n        balances[msg.sender] -= amount;\n        balances[receiver] += amount;\n        emit Sent(msg.sender, receiver, amount);\n    }\n}\n\n\n",
  "sourcePath": "/home/ubuntu/CourseraDocs/Coin/Coin/contracts/Coin.sol",
  "compiler": {
    "name": "solc",
    "version": "0.8.21+commit.d9974bed.Emscripten.clang"
  },
  "schemaVersion": "3.4.16",
  "updatedAt": "2024-06-14T07:27:25.255Z",
  "networkType": "ethereum",
  "devdoc": {
    "kind": "dev",
    "methods": {},
    "version": 1
  },
  "userdoc": {
    "kind": "user",
    "methods": {},
    "version": 1
  }
}